:100000000C9477040C9494040C9494040C9494042D
:100010000C9494040C9494040C9494040C94940400
:100020000C9494040C9494040C9494040C949404F0
:100030000C9494040C9494040C9494040C949404E0
:100040000C9401190C9494040C9494040C9494044E
:100050000C9494040C948F190C9494040C949404B0
:100060000C9494040C949404B00AC70AE00A1F0B81
:10007000350B440B530B620B710B9C13A213A8138B
:10008000AE13B413BA13C013C613CC13D213D813C0
:10009000DE13000000000000005F00000007000702
:1000A00000147F147F14242A7F2A12231308646209
:1000B00036495522500005030000001C2241000073
:1000C00041221C0014083E081408083E080800508D
:1000D00030000008080808080060600000201008D0
:1000E00004023E5149453E00427F40004261514971
:1000F000462141454B311814127F1027454545399B
:100100003C4A4949300171090503364949493606D7
:100110004949291E003636000000563600000814F2
:100120002241001414141414004122140802015135
:100130000906324979413E7E1111117E7F494949B4
:10014000363E414141227F4141221C7F494949417C
:100150007F090909013E4149497A7F0808087F0063
:10016000417F41002040413F017F081422417F40F0
:100170004040407F020C027F7F0408107F3E4141D7
:10018000413E7F090909063E4151215E7F09192937
:1001900046464949493101017F01013F4040403F06
:1001A0001F2040201F3F4038403F6314081463075E
:1001B000087008076151494543007F41410002042E
:1001C0000810200041417F00040201020440404029
:1001D0004040000102040020545454787F484444B5
:1001E000383844444420384444487F3854545418E0
:1001F000087E0901020C5252523E7F080404780026
:10020000447D40002040443D007F102844000041D0
:100210007F40007C041804787C0804047838444447
:1002200044387C14141408081414187C7C08040442
:10023000084854545420043F4440203C4040207C13
:100240001C2040201C3C4030403C44281028440CDA
:100250005050503C4464544C440008364100000067
:100260007F00000041360800100808100800000058
:1002700000007F3E1C08007F2214080008080808C0
:10028000083E3E3E3E3E000000003E3E00000000B4
:1002900060607F01012E003100340037003A003EDB
:1002A00000420045004A004E00520057005C0062C8
:1002B0000068006E0074007B0083008A0093009B3E
:1002C00000A400AE00B800C300CF00DB00E800F6D9
:1002D00000050114012501360148015C0170018609
:1002E000019E01B601D001EC010902280249026B0E
:1002F000029502B702DF020B033A036B039F03D69A
:100300000310044E049004D5041F056D05BE0516A8
:10031000067306D5063D07AB0720089B081E09A9F2
:10032000093C0AD80A7C0B2B0CE50CA90D780E555C
:100330000F3E1035113B1251137614AE15F81656B8
:1003400018C819511B9CA4351BA7AE92639D3D553F
:100350002E504F3A9F3873EA77B67F96AA85ADDB69
:1003600042E3F90639CBFF2DE51D1E135BCA9EC97A
:1003700062AC3F45EB6A5FDC23833BF8519A561F22
:10038000F33EEEF2AB5A936D3C5E822B677A845457
:100390008F16F7690FA9BB0333FEFB6E726C312415
:1003A0000DB5E1BC68E62990A8B709FC5D7C6B8DB2
:1003B000B18C01AF1C1AE98AE7B908DDD60459D01F
:1003C0002F00ED22B02878D402EC409986E0D12CA1
:1003D0006110DAC8A5B2B46689767DA1F5E2300C69
:1003E000415365BE74D9C68EC0C79B267EB819BD61
:1003F0001197E8CFF060BA4A80C4D381A31549753C
:1004000087C50E18B314710A984DA0469579214BF3
:100410007058C3C22A88644E20BFC14437DFCC075E
:10042000D7A20B345CFAEF175705CD368B47E4DEC5
:1004300025F1CED2D594F443FD324C5212F6A648A3
:10044000276FD8917B000000000000000000000032
:10045000000000000000000000000000000000009C
:10046000000000000000000000000000000000008C
:10047000000000000000000000000000000000007C
:10048000000000000000000000000000000000006C
:10049000000000000000000000000000000000005C
:1004A000000000000000000000000000000000004C
:1004B00000000000000F1E2D3C4B5A69788796A55E
:1004C000B4C3D2E1F0FFFFFFFFFFFFFFFFFFFFFF1D
:1004D000FFFFFFFFFFFFFFFFFFFFFFFFFFFFFFFF2C
:1004E000FFFFFFFFFFFFFFFFFFFFFFFFFFFFFFFF1C
:1004F000FFFFFFFFFFFFFFFFFFFFFFFFFFFFFFFF0C
:10050000FFFFFFFFFFFFFFFFFFFFFFFFFFFFFFFFFB
:10051000FFFFFFFFFFFFFFFFFFFFFFFFFFFFFFFFEB
:10052000FFFFFFFFFFFFFFFFFFFFFFFFFFFFFFFFDB
:10053000FFFFFFFFFFF0E1D2C3B4A5968778695AA9
:100540004B3C2D1E0FFFFEFDFCFBFAF9F8F7F6F50C
:10055000F4F3F2F1F0EFEEEDECEBEAE9E8E7E6E5D3
:10056000E4E3E2E1E0DFDEDDDCDBDAD9D8D7D6D5C3
:10057000D4D3D2D1D0CFCECDCCCBCAC9C8C7C6C5B3
:10058000C4C3C2C1C0BFBEBDBCBBBAB9B8B7B6B5A3
:10059000B4B3B2B1B0AFAEADACABAAA9A8A7A6A593
:1005A000A4A3A2A1A09F9E9D9C9B9A999897969583
:1005B00094939291908F8E8D8C8B8A898887868573
:1005C00084838281807F7E7D7C7B7A797877767563
:1005D00074737271706F6E6D6C6B6A696867666553
:1005E00064636261605F5E5D5C5B5A595857565543
:1005F00054535251504F4E4D4C4B4A494847464533
:1006000044434241403F3E3D3C3B3A393837363522
:1006100034333231302F2E2D2C2B2A292827262512
:1006200024232221201F1E1D1C1B1A191817161502
:1006300014131211100F0E0D0C0B0A0908070605F2
:10064000040302010001030507090B0D0F11131527
:1006500017191B1D1F21232527292B2D2F3133353A
:1006600037393B3D3F41434547494B4D4F5153552A
:1006700057595B5D5F61636567696B6D6F7173751A
:1006800077797B7D7F81838587898B8D8F9193950A
:1006900097999B9D9FA1A3A5A7A9ABADAFB1B3B5FA
:1006A000B7B9BBBDBFC1C3C5C7C9CBCDCFD1D3D5EA
:1006B000D7D9DBDDDFE1E3E5E7E9EBEDEFF1F3F5DA
:1006C000F7F9FBFDFFFFFDFBF9F7F5F3F1EFEDEBBC
:1006D000E9E7E5E3E1DFDDDBD9D7D5D3D1CFCDCB7A
:1006E000C9C7C5C3C1BFBDBBB9B7B5B3B1AFADAB6A
:1006F000A9A7A5A3A19F9D9B99979593918F8D8B5A
:1007000089878583817F7D7B79777573716F6D6B49
:1007100069676563615F5D5B59575553514F4D4B39
:1007200049474543413F3D3B39373533312F2D2B29
:1007300029272523211F1D1B19171513110F0D0B19
:100740000907050301000000000101010202030482
:1007500005050607090A0B0C0E0F101214151719C0
:100760001B1D1F212325272A2C2E313336383B3ED3
:10077000404346494C4E5154575A5D606366696C1C
:100780006F7376797C7F8285888B8F9295989B9EFC
:10079000A1A4A7AAADB0B2B5B8BBBEC0C3C6C8CBF2
:1007A000CDD0D2D4D7D9DBDDDFE1E3E5E7E9EAEC70
:1007B000EEEFF0F2F3F4F5F7F8F9F9FAFBFCFCFDD3
:1007C000FDFDFEFEFEFEFEFEFEFDFDFDFCFCFBFA59
:1007D000F9F9F8F7F5F4F3F2F0EFEEECEAE9E7E512
:1007E000E3E1DFDDDBD9D7D4D2D0CDCBC8C6C3C0DF
:1007F000BEBBB8B5B2B0ADAAA7A4A19E9B98959276
:100800008F8B8885827F7C7976736F6C6966636075
:100810005D5A5754514E4C494643403E3B3836335F
:10082000312E2C2A272523211F1D1B1917151412C1
:10083000100F0E0C0B0A090706050504030202013E
:100840000101000000404060301C06030101030666
:100850001C306040080402010204081020402010EF
:100860000804027F010204081020407F01020408EE
:100870001020404040407F0101010101017F4040C4
:10088000404006211042200C4210220944401244EC
:100890000E8EC3E3733E1E03030303030303000032
:1008A00006FFFF000000000303030300FEFF030335
:1008B00003FFFE00003344C1E3636B636361000028
:1008C000E70863676666667E3C0080B942F8FC0C08
:1008D0000D0C1C1800019D42070F0C0C0C0E06009D
:1008E00000E710000000000000000000CC221124EE
:1008F0001FBECFEFD8E0DEBFCDBF12E0A0E0B1E079
:10090000EEE9F4E302C005900D92A635B107D9F7E0
:1009100025E0A6E5B2E001C01D92AB32B207E1F7D7
:100920000E9471170C944D1A0C9400002A986623AB
:1009300011F0299A15C0299813C0AC01022E02C0EB
:10094000559547950A94E2F740FF02C02B9A01C0E3
:100950002B982D9A2D982150310978F72A9A0895CD
:1009600027E030E090E0E9CF60E00E94960408952F
:10097000CF93DF93229A209A219A239A259A289A34
:100980002A9A83EC99E00197F1F700C000002898BB
:100990008BE594E40197F1F700C00000289A2A98AB
:1009A00081E20E94B40483E10E94B40486E00E94C4
:1009B000B40480E40E94B40480E20E94B40489E09C
:1009C0000E94B40480E80E94B4048EE60E94B4043D
:1009D000C8EFD1E061E080E00E9496042197D1F752
:1009E00088E00E94B4048CE00E94B404DF91CF91AF
:1009F000089580E80E94B40480E40E94B404109238
:100A00004E0410924F04E6E5F2E08EE494E0119279
:100A1000E817F907E1F70895262F269526952695DC
:100A200090E034E5239F800D911D1124442379F03B
:100A3000FC01EA5AFD4F677081E090E002C0880F28
:100A4000991F6A95E2F79081892B80830895FC01B4
:100A5000EA5AFD4F677081E090E002C0880F991F4D
:100A60006A95E2F7809590818923808308955F924B
:100A70006F927F928F929F92AF92BF92CF92DF92AE
:100A8000EF92FF920F931F93CF93DF93562E262F53
:100A900030E04901880C991C880C991C820E931E29
:100AA000181419040CF05DC08901000F111F000F0C
:100AB000111F000F111F021B130B612CA82EB12C4C
:100AC000C50180975C01AA0CBB1CAA0CBB1CA80E1C
:100AD000B91E0F2EFFE4CF2EF4E0DF2EF02D0F2EE7
:100AE000FEE4EF2EF4E0FF2EF02D2DC0FE01249148
:100AF00030E0872D652D0E94A51902C035952795F8
:100B00008A95E2F720FF0AC0F6016081670DF701C0
:100B1000808141E0860D0E940C0509C0F6016081CC
:100B2000670DF701808140E0860D0E940C057394EB
:100B3000872D90E080179107CCF26394862D90E08A
:100B40008815990574F410161106BCF7862D652DCD
:100B50000E94A519E501C80FD11DCE56DF4F712C9B
:100B6000C5CF80914E0491E0980F852D880F880F96
:100B7000850D890F843518F480934E040EC01092B1
:100B80004E04EFE4F4E0808191E0980F852D880F0A
:100B9000880F880F8519890F808380914F048033D7
:100BA00020F010924E0410924F04DF91CF911F91CC
:100BB0000F91FF90EF90DF90CF90BF90AF909F90FC
:100BC0008F907F906F905F9008951F93CF93DF93E6
:100BD000EC018881882341F0162F2196612F0E9415
:100BE000370589918111FACFDF91CF911F91089537
:100BF00080934E0460934F0408950F931F93CF93F7
:100C0000DF9380E80E94B40480E40E94B404C6E547
:100C1000D2E00EE414E061E089910E949604C017CE
:100C2000D107C9F7DF91CF911F910F9108954AE045
:100C300050E064E170E082EA91E00E941B1A4AE011
:100C400050E06EE170E084E891E00E941B1A4AE0F7
:100C500050E068E270E088E991E00E941B1A4AE0E7
:100C600050E062E370E08EE891E00E941B1A4AE0D7
:100C700050E06CE370E08CEB94E00E941B1A4AE0B9
:100C800050E066E470E080E791E00E941B1A4AE0C1
:100C900050E060E570E086E691E00E941B1A4AE0B1
:100CA00050E06AE570E08CE591E00E941B1A4AE092
:100CB00050E064E670E082E591E00E941B1A4AE091
:100CC00050E06EE670E088E491E00E941B1A4AE072
:100CD00050E068E770E088EA94E00E941B1A4AE05E
:100CE00050E062E870E082EB94E00E941B1A4AE058
:100CF00050E06CE870E086E291E00E941B1A4AE046
:100D000050E066E970E080E391E00E941B1A44E144
:100D100050E060EA70E086E794E00E941B1A0895B4
:100D20004AE050E064E170E082EA91E00E942B1A10
:100D30004AE050E06EE170E084E891E00E942B1AF6
:100D40004AE050E068E270E088E991E00E942B1AE6
:100D50004AE050E062E370E08EE891E00E942B1AD6
:100D60004AE050E06CE370E08CEB94E00E942B1AB8
:100D70004AE050E066E470E080E791E00E942B1AC0
:100D80004AE050E060E570E086E691E00E942B1AB0
:100D90004AE050E06AE570E08CE591E00E942B1A91
:100DA0004AE050E064E670E082E591E00E942B1A90
:100DB0004AE050E06EE670E088E491E00E942B1A71
:100DC0004AE050E068E770E088EA94E00E942B1A5D
:100DD0004AE050E062E870E082EB94E00E942B1A57
:100DE0004AE050E06CE870E086E291E00E942B1A45
:100DF0004AE050E066E970E080E391E00E942B1A3F
:100E000044E150E060EA70E086E794E00E942B1A2B
:100E10000895E82FF0E0DF01A853BB4F1C92DF01DB
:100E2000A653BB4F9C91992351F0FD0191509083A3
:100E300085ED8A95F1F7000090819111F7CF089523
:100E4000EAECF4E080819181292F30E0280F311DF8
:100E5000232BB1F0882311F081508083992311F066
:100E6000915091838FE193E00197F1F700C000006A
:100E700080819181292F30E0280F311D232B51F7DC
:100E800008955F926F927F928F929F92AF92BF92DE
:100E9000CF92DF92EF92FF920F931F93CF93DF9346
:100EA0000E94200781E08093AC018091AC01811108
:100EB000FCCF1092CC04C0908001D09081010F2E05
:100EC000F2E7EF2EF4E0FF2EF02D0AE814E06EE9D1
:100ED00074E04AE554E026EC34E0CAECD4E0A8EC37
:100EE000B4E00F2EFDECAF2EF4E0BF2EF02D0F2E50
:100EF000F3E08F2EF1E09F2EF02D80E090E055245E
:100F00005394F60171906F01E72DF0E07E2E662478
:100F1000FC01EE0FFF1FE95DFA4F71826082F7015D
:100F2000119211927F01F801119211928F01FB0130
:100F30001192BF01FA0111921192AF01F9011192C0
:100F40009F0119921D92F50151925F01F4011192D6
:100F50004F011092D30401968230910591F6DF91F2
:100F6000CF911F910F91FF90EF90DF90CF90BF90A6
:100F7000AF909F908F907F906F905F900895CF93E8
:100F8000DF938091D504882309F466C280915104CF
:100F9000823009F0D6C080915404823009F47CC0BC
:100FA00030F4882359F0813009F45CC055C2833095
:100FB00009F493C0843009F4AAC04EC28091D604CB
:100FC0009091D704A091D804B091D904883C9105A0
:100FD000A105B10550F480915204E0918201F09195
:100FE0008301E80FF11D108237C2803921E092079A
:100FF000A105B10558F480915204E0918201F0916D
:101000008301E80FF11D81E0808326C2883522E04C
:101010009207A105B10558F480915204E091820134
:10102000F0918301E80FF11D82E0808315C28032C8
:101030009340A105B10558F480915204E0918201DA
:10104000F0918301E80FF11D83E0808305C2809158
:101050005204E0918201F0918301E80FF11D84E0D8
:101060008083FAC180915204E0917A01F0917B0172
:10107000E80FF11D8091D6049091D704A091D80477
:10108000B091D904B695A79597958795B695A795EC
:10109000979587958083E0C180915204E0917E010D
:1010A000F0917F01E80FF11D2091D6043091D70413
:1010B0004091D8045091D904A7E5B0E00E94101ADD
:1010C000DC01CB01072E7AE0B695A7959795879519
:1010D0007A95D1F7702D8083BFC180915204E09141
:1010E0007C01F0917D01E80FF11D8091D604909173
:1010F000D704A091D804B091D904B695A795979537
:101100008795B695A795979587958083A5C180917A
:101110005204E0918001F0918101E80FF11D80916E
:10112000D6049091D704A091D804B091D904B69573
:10113000A79597958795B695A79597958795808359
:101140008BC1833009F0CDC080915504823009F401
:101150005EC028F4882351F0813089F17DC183304D
:1011600009F47CC0843009F4A1C076C18091D60412
:101170009091D704A091D804B091D904B695A795C1
:1011800097958795B695A795979587950097A1050B
:10119000B10559F480915204E0914601F091470164
:1011A000E80FF11D81E0808357C120915204E09146
:1011B0004601F0914701E20FF11D80834DC1C2E568
:1011C000D4E08881E0914401F0914501E80FF11DE0
:1011D0008091D6049091D704A091D804B091D904FD
:1011E000B695A79597958795B695A7959795879561
:1011F00080838881E0914401F0914501E80FF11D61
:101200008081823008F028C182E0808325C1C2E558
:10121000D4E08881E0914201F0914301E80FF11D93
:101220008091D6049091D704A091D804B091D904AC
:10123000B695A79597958795B695A7959795879510
:1012400080838881E0914201F0914301E80FF11D14
:101250008081823008F000C11082FEC0C2E5D4E077
:101260008881E0914001F0914101E80FF11D8091EA
:10127000D6049091D704A091D804B091D904B69522
:10128000A79597958795B695A79597958795808308
:101290008881E0914001F0914101E80FF11D8081CA
:1012A000853008F0D9C085E08083D6C08091520493
:1012B000E0913E01F0913F01E80FF11D8091D604CD
:1012C0009091D704A091D804B091D904072E79E069
:1012D000B695A795979587957A95D1F7702D8083C8
:1012E000BBC0843069F580915604882319F08130A1
:1012F00069F0B2C080915204E0913A01F0913B0153
:10130000E80FF11D8091D7048083A6C0809152041C
:10131000E0913C01F0913D01E80FF11D8091D60470
:101320009091D704A091D804B091D904B695A7950F
:1013300097958795B695A7959795879580838CC047
:10134000853009F089C080915704813009F459C073
:1013500020F0823009F46FC07FC08091D604909154
:10136000D704A091D804B091D904883C9105A10577
:10137000B10550F480915204E0912001F0912101D7
:10138000E80FF11D108268C0803921E09207A105A5
:10139000B10558F480915204E0912001F0912101AF
:1013A000E80FF11D81E0808357C0883522E0920765
:1013B000A105B10558F480915204E0912001F0910B
:1013C0002101E80FF11D82E0808346C08032934006
:1013D000A105B10558F480915204E0912001F091EB
:1013E0002101E80FF11D83E0808336C08091520413
:1013F000E0912001F0912101E80FF11D84E080834C
:101400002BC080915204E0912201F0912301E80F5A
:10141000F11D8091D6049091D704A091D804B09189
:10142000D904B695A79597958795B695A79597955D
:101430008795808311C0E0915204F0E0EE0FFF1F0A
:101440008091240190912501E80FF91F8091D60425
:101450009091D70491838083DF91CF91089590E09C
:101460009C01220F331FA9014E555E4F50938301FB
:1014700040938201A9014C575E4F50937B014093EA
:101480007A01A90148565E4F50937F0140937E0137
:10149000A90142575E4F50937D0140937C01A90101
:1014A00044545B4F5093810140938001A9014059FE
:1014B0005E4F5093470140934601A9014A595E4F40
:1014C0005093450140934401A901445A5E4F509303
:1014D000430140934201A9014E5A5E4F509341018E
:1014E00040934001A901485B5E4F50933F014093F8
:1014F0003E01A90148555B4F50933B0140933A018F
:10150000A9014E545B4F50933D0140933C01A9010A
:101510004A5D5E4F5093210140932001205D3E4F74
:1015200030932301209322019C01220F331F220FAD
:10153000331F2A583B4F30932501209324018559AE
:101540009B4F9093020180930101089590E08930B0
:10155000910508F0D4C0FC01EC5CFF4F0C94FB1922
:1015600081E080930001109250041092D504809184
:10157000510490E0FC01EE5AFB4F2081222309F434
:10158000BEC0FC01EE5AFB4F21502083089581E03C
:10159000809300011092D5048091510490E0FC01E9
:1015A000EE5AFB4F2081FC01E95BFD4F3081231790
:1015B00008F0A5C0FC01EE5AFB4F2F5F2083089571
:1015C00081E08093000180915104811112C08091CB
:1015D0005204823020F481E0809351040895809178
:1015E000500481118CC00E94900681E080935004C9
:1015F00008958130D1F480915304813051F028F066
:10160000823059F0833069F0089582E0809351046C
:10161000089583E080935104089584E080935104F9
:10162000089585E0809351040895863008F067C0DE
:101630009091D50481E089278093D504089581E0B5
:10164000809300011092D50480915104813011F0F3
:10165000863019F41092510408958250843008F0B5
:101660004EC081E080935104089580918201909151
:101670008301825A914029F01092D50480E00E94A3
:101680002F0A0E9441070895809182019091830161
:10169000845A914029F01092D50481E00E942F0ACB
:1016A0000E94410708958091820190918301865A9A
:1016B000914029F01092D50482E00E942F0A0E94E6
:1016C000410708958091820190918301885A914049
:1016D00029F01092D50483E00E942F0A0E9441074E
:1016E000089580918201909183018A5A914029F056
:1016F0001092D50484E00E942F0A0E9441070895A9
:10170000CF92DF92EF92FF920F931F93CF93DF93CD
:101710006C01D62F0F2EFEE0EF2EF1E0FF2EF02D04
:1017200005E011E0C0E0F701819191917F018C15F6
:101730009D0539F4F80180818D1303C08C2F0E9420
:10174000A60ACF5F0F5F1F4FC93069F7DF91CF91B6
:101750001F910F91FF90EF90DF90CF9008950F931E
:10176000CF93DF93DC0181E08093AC019091AC01D9
:101770009111FCCFEA01E881F0E0022E02C0F5955C
:10178000E7950A94E2F7E0FD0FC08C91811115C036
:10179000FB018081081788F4CA0131E03C93108274
:1017A000622F0E94800B09C08C91882331F0EB01DD
:1017B0008881081710F41C921882DF91CF910F9145
:1017C000089590E0E0917E01F0917F01E80FF91F0C
:1017D000E081E1112CC020917C0130917D01F90163
:1017E000E80FF91F2081293780F468E770E0CB010A
:1017F000821B91099C0140ED4203C001439F900D63
:1018000011240E94C519CB010895273808F49FC000
:1018100030E02758310940E3429FC001439F900DBB
:10182000112468E770E00E94C519CB010895E735DF
:1018300008F05DC020917C0130917D01D901A80F95
:10184000B91F2C91293728F58E2F90E0FC01EE0F5F
:10185000FF1FE956FD4F45915491FC01EE0FFF1F0C
:10186000EB56FD4F85919491BC01641B750BAB0148
:1018700068E770E0CB01821B91099C01429FC00187
:10188000439F900D529F900D11240E94C519CB01CA
:101890000895273808F45EC08E2F90E0FC01EE0F0B
:1018A000FF1FE956FD4F45915491FC01EE0FFF1FBC
:1018B000EB56FD4F85919491481B590B822F90E078
:1018C00087589109489F9001499F300D589F300DCE
:1018D0001124A9E8B8E80E94011A0024880F991F72
:1018E000001C880F991F001C892F902D08952091AE
:1018F0007C0130917D01F901E80FF91F2081293722
:1019000090F468E770E0AB01421B51092CE53EEF13
:10191000429FC001439F900D529F900D11240E9441
:10192000C519CB0108952738C0F030E02758310998
:1019300044EA51E0249FC001259F900D349F900DF3
:10194000112468E770E00E94C519CB01089580E07A
:1019500090E0089580E090E0089580E090E00895A0
:101960008D359105E8F42AE1289FA001299F500DAB
:1019700011249A01A9E5B0E60E94011A481B590BEF
:10198000569547959C01240F351FC9010024880FE7
:10199000991F001C880F991F001C892F902D0895F6
:1019A0008A3B9105B0F444E3489F9001499F300D74
:1019B000112436952795ADE2B0EB0E94011A002460
:1019C000880F991F001C880F991F001C892F902DCC
:1019D0000895873121E09207C0F448E6489F9001BE
:1019E000499F300D1124285C354236952795ADE28C
:1019F000B0EB0E94011A0024880F991F001C880F69
:101A0000991F001C892F902D0895843721E092079B
:101A1000C0F44FEC489F9001499F300D1124265689
:101A2000364936952795ADE2B0EB0E94011A0024A5
:101A3000880F991F001C880F991F001C892F902D5B
:101A40000895813D21E0920778F49C0127513140AF
:101A5000AEE9B1E00E94011A2AEB30E040E050E02C
:101A60000E94D919C90108958E3222E0920778F4B4
:101A70009C0124573140AAE3B3E00E94011A2AEBEB
:101A800030E040E050E00E94D919C90108958B3838
:101A900022E0920778F49C01215D3140A3E7B6E093
:101AA0000E94011A2AEB30E040E050E00E94D91970
:101AB000C9010895883E22E0920778F49C012E52D5
:101AC0003240A5EEBCE00E94011A2AEB30E040E073
:101AD00050E00E94D919C9010895853423E0920786
:101AE00078F49C012B583240A8ECB9E10E94011A0D
:101AF0002AEB30E040E050E00E94D919C901089576
:101B0000823A23E0920778F49C01285E3240A0E9F3
:101B1000B3E30E94011A2AEB30E040E050E00E945B
:101B2000D919C90108959C0126543340A0E2B7E6B3
:101B30000E94011A22EC30E040E050E00E94D919E6
:101B4000C90108958A31910588F44DE5489F9001B7
:101B5000499F300D1124A5ECBEE40E94011A969510
:101B600087959695879596958795089584339105E1
:101B700088F44AEB489F9001499F300D1124A5EC51
:101B8000BEE40E94011A929582958F7089279F70FA
:101B9000892708958836910598F44DE5489F90016E
:101BA000499F300D1124A5ECBEE40E94011A9295C4
:101BB00082958F7089279F708927835A9F4F089538
:101BC0008F3C9105A8F44DE5489F9001499F300D49
:101BD0001124A5ECBEE40E94011A96958795929572
:101BE00082958F7089279F70892786549F4F08950B
:101BF0008E3921E0920790F44DE5489F9001499F6E
:101C0000300D1124ADE4BEE90E94011A880F892F1E
:101C1000881F990B9195895E9E4F08958A3323E022
:101C2000920778F49C01ADE5B0E00E94011A2EE91C
:101C300031E040E050E00E94D919C9018C589E4F14
:101C40000895833726E0920778F49C01ADE5B0E073
:101C50000E94011A2AE333E040E050E00E94D919C3
:101C6000C9018F529E4F0895853E2CE0920778F46B
:101C70009C01ADE5B0E00E94011A23E736E040E0A8
:101C800050E00E94D919C901825D9D4F0895883C9A
:101C900029E1920778F49C01ADE5B0E00E94011AB9
:101CA00025EE3CE040E050E00E94D919C90185577B
:101CB0009D4F0895803923E3920778F49C01ADE5A8
:101CC000B0E00E94011A28EC39E140E050E00E94A7
:101CD000D919C90188519D4F08959C01ADE5B0E027
:101CE0000E94011A20E933E340E050E00E94D91934
:101CF000C9018A5B9C4F08950F931F93CF93DF9385
:101D000091E09093AC019091AC019111FCCFC82F60
:101D1000D0E0E0917E01F0917F01EC0FFD1FE081AA
:101D2000F0E0EE0FFF1FEB56FD4F059114910E945E
:101D3000E10BCC0FDD1FC15EDA4F800F911F99833D
:101D40008883DF91CF911F910F9108958F929F9279
:101D5000AF92BF92CF92DF92EF92FF920F931F93B9
:101D6000CF93DF9391E09093AC019091AC019111EE
:101D7000FCCFE82EF12CE0913C01F0913D01EE0DFD
:101D8000FF1DD081DD2309F443C18701F801E2562C
:101D9000FB4F908191113CC1E0913A01F0913B01E0
:101DA000EE0DFF1D8081813009F46BC038F0823068
:101DB00009F4C9C0833009F402C12AC16801CC0CFE
:101DC000DD1CF601E15EFA4F808191810E94A20D37
:101DD000AC01F601E657FB4F20813181AD2FB0E019
:101DE0000E94011A4B015C01689416F8B694A794FE
:101DF000979487941694D1F7CA01A0E0B0E08815B3
:101E00009905AA05BB0588F48E2D0E94090784E078
:101E1000F801ED5FFE4F8083F801E353FB4F108222
:101E200081E0F801E256FB4F8083000F111FE801AB
:101E3000C15EDA4F888199810E94A20DAC01E091C8
:101E40003C01F0913D01EE0DFF1D2081F801E657A8
:101E5000FB4FA081B18130E00E94011ADC01CB016F
:101E6000689416F8B695A795979587951694D1F727
:101E70009A01281B390BC9010E94B00C99838883F1
:101E8000C7C06801CC0CDD1CF601E15EFA4F808111
:101E900091810E94A20DAC01F601E657FB4F208113
:101EA0003181AD2FB0E00E94011ADC01CB016894B2
:101EB00016F8B695A795979587951694D1F7840F40
:101EC000951FA11DB11D81309440A105B10588F079
:101ED0008E2D0E94090784E0F801ED5FFE4F80839C
:101EE000F801E353FB4F108281E0F801E256FB4F0B
:101EF0008083000F111FE801C15EDA4F888199814C
:101F00000E94A20DAC01E0913C01F0913D01EE0D6B
:101F1000FF1D2081F801E657FB4FA081B18130E021
:101F20000E94011ADC01CB01689416F8B695A795BA
:101F3000979587951694D1F7840F951F0E94B00C42
:101F40009983888365C09801220F331FF901E657F2
:101F5000FB4F40815181D49FC001D59F900D11242A
:101F6000C92FDD27F901E15EFA4F808191810E943E
:101F7000A20D2DE530E02C1B3D0B8217930740F49A
:101F8000000F111FF801E15EFA4F1182108240C06C
:101F9000CD35D10570F4CD55D1098C0F9D1F0E9410
:101FA000B00C000F111FF801E15EFA4F918380839E
:101FB0002FC0F801E256FB4F81E0808329C0F80171
:101FC000EE0FFF1FE657FB4F20813181D29FC001EA
:101FD000D39F900D1124C92FDD27CD35D10598F45D
:101FE000000F111F015E1A4FF801808191810E943C
:101FF000A20D8C1B9D0B835A9F4F0E94B00CF801C1
:102000009183808305C0F801E256FB4F81E0808315
:10201000DF91CF911F910F91FF90EF90DF90CF90C4
:10202000BF90AF909F908F900895CF92DF92EF92E4
:10203000FF920F931F93CF93DF9391E09093AC01A6
:102040009091AC019111FCCFE82EF12C9701220F59
:10205000331FE0912401F0912501E20FF31F20814D
:1020600031812230310508F4E7C0C701DC01A059F5
:10207000BB4F6C911C9220813181203A3105B8F41C
:10208000FC01EE0FFF1FEE58FB4F329522952F708B
:1020900023273F702327629FA001639F500D1124C7
:1020A00020813181240F351F318320838AC020365F
:1020B00041E03407D8F4FC01EE0FFF1FEE58FB4F50
:1020C000205A3109369527953695279536952795C7
:1020D000265F3F4F629FA001639F500D1124208116
:1020E0003181240F351F318320836BC0211542E0DD
:1020F0003407C8F4FC01EE0FFF1FEE58FB4F2056CB
:10210000314036952795369527952E5D3F4F629F36
:10211000A001639F500D112420813181240F351FB0
:10212000318320834EC0283A42E03407B0F4FC01EA
:10213000EE0FFF1FEE58FB4F325036952795265B6A
:102140003F4F629FA001639F500D11242081318178
:10215000240F351F3183208334C0223543E03407F8
:10216000C0F4FC01EE0FFF1FEE58FB4F220F331F90
:10217000220F331FA90142505A40649FD001659F2E
:10218000B00D1124208131812A0F3B1F3183208320
:1021900018C0FC01EE0FFF1FEE58FB4F220F331F3C
:1021A000220F331F220F331F2A543741629FA00191
:1021B000639F500D112420813181240F351F3183FD
:1021C00020836C01CC0CDD1CE601C15EDA4F8881F6
:1021D00099810E94A20D8C01E0912001F0912101D2
:1021E000EE0DFF1DE081F0E0FE2FEE27D601AE5888
:1021F000BB4F11962C9130E0E20FF31FEB5BFC4FCD
:10220000E4918091220190912301DC01AE0DBF1D6C
:102210002C91F0E0E058F1092E9FC0012F9F900D06
:1022200011246FEF70E00E94C519CB01800F911F40
:102230000E94B00C99838883DF91CF911F910F91F9
:10224000FF90EF90DF90CF900895CF93DF9391E0D0
:102250009093AC019091AC019111FCCFE82FF0E08C
:10226000DF01AD5FBE4F9C91913009F448C038F05A
:10227000923009F494C0933009F4AAC042C1DB0142
:102280009C91992381F1DF01AA0FBB1FA65ABB4F76
:102290002D913C9122953295307F3227207F322735
:1022A000A0914601B0914701A80FB11D6C9170E05B
:1022B000C9010E94B1196F3F710520F4E853FB4F2B
:1022C00060831FC1DF01A853BB4F8FEF8C93DF01E9
:1022D000AD5FBE4F81E08C93EE0FFF1FE65AFB4FC0
:1022E000118210820EC1DF01AD5FBE4F81E08C9381
:1022F000EE0FFF1FE65AFB4F1182108202C1DB0175
:102300009C91992309F43FC0282F30E0A09142010D
:10231000B0914301A20FB31F8C91DF01A853BB4FB3
:102320009C918917F0F4882371F1ED01EE0FFF1FE6
:10233000E65AFB4F8081918182959295907F9827F4
:10234000807F98274091440150914501FA01E20FA6
:10235000F31F608170E00E94B119862F80958883F9
:10236000D0C0882381F0DF01A853BB4F8C93DF01DD
:10237000AD5FBE4F82E08C93EE0FFF1FE65AFB4F1E
:1023800011821082BEC0DF01AD5FBE4F82E08C9330
:10239000EE0FFF1FE65AFB4F11821082B2C0DB0125
:1023A0009C91992349F0A0914201B0914301A80F5B
:1023B000B11D8C918111A5C0DF01AD5FBE4F83E0DF
:1023C0008C93EE0FFF1FE65AFB4F1182108299C0CB
:1023D000DF01A853BB4F9C919230A0F4DF01A853BA
:1023E000BB4F1C92DF01AA0FBB1FA65ABB4F1D9209
:1023F0001C92DF01AD5FBE4F84E08C93E353FB4F33
:1024000010827FC0DF01AE5ABE4F2C912E3F28F0C4
:10241000ED5FFE4F84E0808374C0DF01AA53BB4FA1
:102420002C91211104C0DF01AA53BB4F9C93282F8C
:1024300030E0A0913E01B0913F01A20FB31F8C91FB
:1024400081112AC0DF01AA53BB4FCC91DF01AA0F33
:10245000BB1FA65ABB4F8D919C9182959295907F00
:102460009827807F98274091400150914101DA01DF
:10247000A20FB31F6C9170E00E94B1198C2F90E0F5
:102480006817790728F4E853FB4FC61BC08339C08F
:10249000E853FB4F108235C080914001909141017B
:1024A000DC01A20FB31F4C91DF01AA0FBB1FA65A7C
:1024B000BB4F2D913C91EF01C853DB4FEA53FB4FCB
:1024C000608150E0649FC001659F900D1124B901A7
:1024D00076956795640F751F0E94B119462F369542
:1024E00027953695279536952795A5ECB0E20E945D
:1024F000011A929582958F7089279F708927481BB2
:102500004883DF91CF910895D9012C91A22FB0E09B
:10251000B595A795B595A795B595A795FB0130817C
:102520003A9FF0013B9FF00D1124DA013C91E30F3B
:10253000F11DE80FF91F849190E0277002C0959576
:1025400087952A95E2F7817008958F929F92AF92B6
:10255000BF92CF92DF92EF92FF920F931F93CF9390
:10256000DF9300D0CDB7DEB71A82DB01EC91EE230A
:1025700069F149016A017B015C011982F6018081E0
:102580008823E9F09E012F5F3F4FAE014E5F5F4F02
:10259000B701C5010E948412D8016C919981690F1D
:1025A000F40120819A81482F822F890F0E940C0507
:1025B00099819F5F9983D6018C91981718F38A812E
:1025C0008F5F8A83F70190818917B8F20F900F907F
:1025D000DF91CF911F910F91FF90EF90DF90CF90FF
:1025E000BF90AF909F908F900895CF93C62FE091AA
:1025F0005104F0E0EE5AFB4F6081660F660F660FE4
:102600006C9F602D11240E94F8058091D5048823C9
:1026100029F06C2F80E80E94370504C06C2F81E8F8
:102620000E943705CF9108950F931F93CF93DF93A7
:1026300000D000D000D0CDB7DEB71E821D828E0143
:102640000A5F1F4F9E012B5F3F4F44E552E065E557
:1026500072E08CEA98E00E94A512809152048111E8
:1026600011C086E28C831B82025011099E012D5FEE
:102670003F4F42E552E063E572E08EE998E00E9448
:10268000A51211C086E28A8319828E010E5F1F4F48
:102690009E012F5F3F4F40E552E061E572E080E927
:1026A00098E00E94A51226960FB6F894DEBF0FBEE2
:1026B000CDBFDF91CF911F910F910895CF93DF93FD
:1026C000EC018881E0917E01F0917F01E80FF11D1E
:1026D0008081833028F461E080E30E9437050BC0DD
:1026E00090E003976CE070E00E94C519862F61E0CE
:1026F0008F5C0E9437058881E0917E01F0917F0117
:10270000E80FF11D90818BEA989F812D1124869509
:1027100086958695282F220F820F880F880FE92F24
:10272000E81B8E2F90E08C30910508F04CC0FC0126
:10273000E35CFF4F0C94FB1961E08DEA91E00E948D
:10274000E50541C061E08FEA91E00E94E5053BC0EC
:1027500061E082EB91E00E94E50535C061E084E133
:1027600092E00E94E5052FC061E084EB91E00E94B9
:10277000E50529C061E087EB91E00E94E50523C0F3
:1027800061E089EB91E00E94E5051DC061E084EE07
:1027900091E00E94E50517C061E08CEB91E00E949A
:1027A000E50511C061E08EEB91E00E94E5050BC0EC
:1027B00061E081EC91E00E94E50505C061E083ECF9
:1027C00091E00E94E505DF91CF910895EF92FF928D
:1027D0000F931F93CF93DF937C018B0161E084E81B
:1027E0000E943705C5E1D0E0F7018081F801E80FCC
:1027F000F11D808190E0C817D9072CF461E083E8CF
:102800000E94370504C061E082E80E943705AA965D
:10281000C131F1E0DF0741F761E085E80E9437054B
:10282000DF91CF911F910F91FF90EF9008950F933B
:102830001F93CF93DF93CDB7DEB72A970FB6F894E7
:10284000DEBF0FBECDBFFC018081FB01E80FF11D93
:1028500080818230C9F128F4882351F08130F1F071
:1028600074C0833009F446C0843009F459C06DC087
:1028700061E080E20E9437051A868AE289878E012C
:10288000065F1F4F9E01275F3F4F4EE452E06FE40B
:1028900072E081E898E00E94A51257C061E080E2F2
:1028A0000E94370518868AE28F838E01085F1F4FCA
:1028B0009E01295F3F4F4EE452E06FE472E082E7F1
:1028C00098E00E94A51241C061E080E20E943705B5
:1028D0001E828AE28D838E010A5F1F4F9E012B5F4D
:1028E0003F4F4EE452E06FE472E083E698E00E94CE
:1028F000A5122BC061E080E20E9437051C828AE2AB
:102900008B838E010C5F1F4F9E012D5F3F4F4EE466
:1029100052E06FE472E084E598E00E94A51215C0D1
:1029200061E080E20E9437051A828AE289838E0183
:102930000E5F1F4F9E012F5F3F4F4EE452E06FE44A
:1029400072E085E498E00E94A5122A960FB6F894EA
:10295000DEBF0FBECDBFDF91CF911F910F910895C4
:10296000CF92DF92EF92FF92CF93DF93FC018081B1
:10297000E0918001F0918101E80FF11D208130E0AC
:10298000A8E6B1E00E94011A2FEF30E040E050E0ED
:102990000E94D91969017A013695279536952795B0
:1029A000ABE7B4E10E94011AEC01D695C79561E04E
:1029B0008C2F805D0E94370524E62C9FC0012D9F3F
:1029C000900D1124C81AD90A9601ADECBCEC0E94F6
:1029D000011AEC01D695C795D695C795D695C7959A
:1029E00061E08C2F805D0E943705CE01880F991F12
:1029F000CC0FDD1FCC0FDD1FCC0FDD1FC80FD91F83
:102A0000C6018C1B9D0B61E0805D0E943705DF9144
:102A1000CF91FF90EF90DF90CF900895CF92DF920B
:102A2000EF92FF920F931F93CF93DF931F92CDB737
:102A3000DEB781E08093AC011091AC011111FCCFA5
:102A40000E94F90480915104823009F464C028F492
:102A5000882361F08130A1F138C2843009F48FC13C
:102A600008F41FC1853009F4E3C12FC260E08CE097
:102A70000E94F80562E086EC91E00E94E50560E1C5
:102A80008CE00E94F80562E08BEC91E00E94E50585
:102A900060E28CE00E94F80580915004882331F0B8
:102AA00062E080ED91E00E94E50505C062E083ED03
:102AB00091E00E94E50562E081E00E94F51205C206
:102AC0000E94141360E082E10E94F80561E088ED45
:102AD00091E00E94E50568E082E10E94F80561E06E
:102AE0008DED91E00E94E50560E182E10E94F8052C
:102AF00061E086EE91E00E94E50568E182E10E94D6
:102B0000F80561E08CEE91E00E94E50561E08DE062
:102B10000E94F512DAC10E94141360E082E10E9463
:102B2000F80561E084EF91E00E94E5056091820183
:102B30007091830182E594E00E94171468E082E1BD
:102B40000E94F80561E088EF91E00E94E505609140
:102B50007A0170917B0182E594E00E94E61360E1C6
:102B600082E10E94F80561E08CEF91E00E94E505AA
:102B700082E594E00E945E1368E182E10E94F8051C
:102B800061E081E092E00E94E50561E080E20E9460
:102B900037050F2EF5E1EF2EF12CF02D01E00F2E71
:102BA000F2E5CF2EF4E0DF2EF02D05C01F5F0F5FA2
:102BB0008AE2E80EF11C133048F5123081F4F60178
:102BC0008081E0917C01F0917D01E80FF11D808111
:102BD000893728F461E083E80E943705E7CFF601E2
:102BE0008081E0917C01F0917D01E80FF11D8081F1
:102BF00090E08E159F052CF461E083E80E94370574
:102C00002DC061E082E80E94370528C0133081F4AE
:102C1000F6018081E0917C01F0917D01E80FF11DCA
:102C20008081873828F061E083E80E943705BECFB5
:102C3000F6018081E0917C01F0917D01E80FF11DAA
:102C4000808190E0E816F9062CF461E083E80E94A8
:102C5000370504C061E082E80E943705063008F4B9
:102C6000A5CF18E141E0612F8BE30E940C051F5FA7
:102C70001F31C1F760E282E10E94F80561E085E062
:102C800092E00E94E50582E594E00E94B01461E0C4
:102C90008AE092E00E94E50561E08DE00E94F51275
:102CA00014C10E94141360E082E10E94F80561E003
:102CB0008EE092E00E94E505609146017091470127
:102CC00082E594E00E94E61368E082E10E94F80544
:102CD00061E082E192E00E94E5056091440170911B
:102CE000450182E594E00E94E61360E182E10E94E2
:102CF000F80561E086E192E00E94E50560914201FD
:102D00007091430182E594E00E94E61368E182E15C
:102D10000E94F80561E08AE192E00E94E505609179
:102D200040017091410182E594E00E94E61360E267
:102D300082E10E94F80561E08EE192E00E94E505E3
:102D400061E080E20E94370580915204E0913E01EB
:102D5000F0913F01E80FF11D8081882331F061E09F
:102D600082E292E00E94E50505C061E08AE292E01D
:102D70000E94E50561E08DE00E94F512A6C00E9468
:102D8000141360E082E10E94F80561E081E392E0C3
:102D90000E94E50580915204E0913A01F0913B01D7
:102DA000E80FF11D8081813081F028F08230B9F088
:102DB0008330F9F027C061E087E392E00E94E505E7
:102DC00061E086E80E9437051DC061E086E80E9448
:102DD000370561E08BE392E00E94E50513C061E0F6
:102DE0008BE392E00E94E50561E086E80E943705EA
:102DF00009C061E086E80E94370561E087E392E060
:102E00000E94E50568E082E10E94F80561E08FE339
:102E100092E00E94E50560913C0170913D0182E5E0
:102E200094E00E94E61361E08DE00E94F5124DC02F
:102E30000E94141360E082E10E94F80561E084EFD3
:102E400091E00E94E505609120017091210182E5E9
:102E500094E00E94171468E082E10E94F80561E0A6
:102E600083E492E00E94E5056091220170912301C4
:102E700082E594E00E94E61360E182E10E94F80599
:102E800061E08FE392E00E94E5058091520490E0BA
:102E90009C01220F331FE0912401F0912501E20FE4
:102EA000F31F208131813695279536952795298303
:102EB000BE016F5F7F4F681B790B82E594E00E9433
:102EC000E61361E08DE00E94F5120E94FD050F906F
:102ED000DF91CF911F910F91FF90EF90DF90CF90F6
:102EE00008951092C50091E89093C40088E0809303
:102EF000C10086E08093C2008FE284B980ED85B97D
:102F000017B88FE188B980E48AB98DE18BB985E47F
:102F100080937C00EAE7F0E08FE8808380E2809392
:102F20007E0080818064808317BC81E080936E0086
:102F300094BD10926F001092800016BC2FEF30E00D
:102F4000309385002093840085BD109281000E94FB
:102F5000B8040E94170678940E940E1511E00F2EF7
:102F6000F7E68F2EF4E09F2EF02D0F2EFAE52F2E90
:102F7000F4E03F2EF02D0F2EFEE04F2EF1E05F2EFD
:102F8000F02D0F2EFBE16F2EF5E07F2EF02D10932C
:102F9000AC018091AC018111FCCF9091D3041092CF
:102FA000D3040F2EFEE5AF2EF4E0BF2EF02DF50179
:102FB0008081890F8193E815F905D1F7292F30E039
:102FC0004091D1045091D204420F531F5093D20428
:102FD0004093D1044091CF045091D0048091590482
:102FE000890F80935904F10160817181620F731F11
:102FF0007183608362817381620F731F7383628345
:10300000EAE8F4E060817181620F731F718360836D
:1030100060918C0470918D04620F731F70938D0406
:1030200060938C04E0E7F4E08081890F80838091D5
:103030007104980F90937104220F331F240F351FD2
:103040003093D0042093CF048091DA04E82FF0E08D
:10305000EE0FFF1FE552FB4F20911B0530911C0521
:1030600031832083813218F01092DA0403C08F5F1D
:103070008093DA04EAE7F0E08081806480838091C5
:103080005904893C40F08091D504811109C0809198
:10309000CC04882329F080910001882309F4A2C080
:1030A000109259040E940E15109200019BC0F60167
:1030B00021916F01F701419151917F0102E3B50127
:1030C000CE010E94AF0B2196FFEFAF1ABF0AC414C6
:1030D000D50469F7EBEDF4E080E090E0DC012191AC
:1030E0003191820F931FA11DB11DE615F705B9F7A8
:1030F000689414F8B695A795979587951694D1F787
:103100008093D6049093D704A093D804B093D904A5
:103110000E94BF0780E00E947C0E812F0E947C0EDF
:10312000609101017091020180E00E94251160917F
:10313000010170910201812F0E94251180E00E94FF
:10314000A60E812F0E94A60E80E00E941510812FEE
:103150000E9415101093AC018091AC018111FCCF3D
:10316000EFE1F5E080819181E3E2F5E091838083F6
:10317000C0917A01D0917B01E8ECF4E08081688114
:10318000869FB0011124072E000C880B990B2EEF9F
:1031900031E040E050E00E94D919EAECF4E02083ED
:1031A0008091210590912205909326058093250515
:1031B0008091C9046981869FB0011124072E000CFB
:1031C000880B990B2EEF31E040E050E00E94D919B6
:1031D0002093CB04EDECF4E090818181890F809302
:1031E000CC04D5CE0F2EF5E0CF2EF1E0DF2EF02D62
:1031F0000F2EFEE0EF2EF1E0FF2EF02DC7E6D4E01B
:1032000056CF1F920F920FB60F9211242F933F9318
:103210004F935F936F937F938F939F93AF93BF93DE
:10322000CF93DF93EF93FF938091CC04882309F42D
:1032300052C063E275E0DB012D913C91A7E2B5E05D
:103240008D919C911197820F931F11969C938E9351
:1032500040918201509183018D919C911197EA01D7
:10326000E881F0E0FE2FEE27892F9927E80FF91F5C
:10327000EB5BFC4F2491CDE1D5E02883FB0162811B
:10328000738112968D919C911397860F971F1396B9
:103290009C938E93129712968D919C911397DA01BD
:1032A0001196EC91F0E0FE2FEE27892F9927E80F79
:1032B000F91FEB5BFC4FE491E983AAECB4E08C913D
:1032C000829F9001112411968C918E9FF001112400
:1032D0008F2F830F87BD8091D4048F5F893218F4BC
:1032E0008093D40407C01092D4048091D3048F5FDC
:1032F0008093D3041092AC01FF91EF91DF91CF91B5
:10330000BF91AF919F918F917F916F915F914F91FD
:103310003F912F910F900FBE0F901F9018951F9205
:103320000F920FB60F9211248F939F938091780084
:103330009091790090931C0580931B059F918F912C
:103340000F900FBE0F901F901895991B79E004C045
:10335000991F961708F0961B881F7A95C9F78095D4
:103360000895AA1BBB1B51E107C0AA1FBB1FA617CC
:10337000B70710F0A61BB70B881F991F5A95A9F71E
:1033800080959095BC01CD01089597FB072E16F40A
:10339000009407D077FD09D00E94B11907FC05D031
:1033A0003EF4909581959F4F0895709561957F4F5C
:1033B0000895A1E21A2EAA1BBB1BFD010DC0AA1F76
:1033C000BB1FEE1FFF1FA217B307E407F50720F08E
:1033D000A21BB30BE40BF50B661F771F881F991F09
:1033E0001A9469F760957095809590959B01AC0152
:1033F000BD01CF010895EE0FFF1F0590F491E02D60
:103400000994A29FB001B39FC001A39F700D811DBD
:103410001124911DB29F700D811D1124911D0895DD
:103420000E94011AA59F900DB49F900DA49F800D3E
:10343000911D11240895DC01CB01FC01F999FECF07
:1034400006C0F2BDE1BDF89A319600B40D9241502C
:103450005040B8F70895DC01A40FB51F415050400B
:1034600048F0CB01840F951F2E910E943C1A4150C9
:103470005040D0F70895262FF999FECF92BD81BD17
:10348000F89A019700B4021639F01FBA20BD0FB6A2
:0E349000F894FA9AF99A0FBE0895F894FFCFB7
:10349E00016704040400020304000102030429006E
:1034AE0029002900290026002600260026002600D5
:1034BE002601300176040404040404040404040404
:1034CE0023232323232323232323A804B2044801E5
:1034DE0052015C016601700101010101010101014E
:1034EE0001019696969696969696969646464646D8
:1034FE00464646464646BEBEBEBEBEBEBEBEBEBEAE
:10350E003232323232323232323284018E0198010C
:10351E00BC04A201FFFFFFFFFFFFFFFFFFFF7F7F46
:10352E007F7F7F7F7F7F7F7F3939373734343232E9
:10353E003030040404040404040404040141004172
:10354E002300420043230044004423004600462348
:10355E000047004723004F534331004F534332007F
:10356E004F4B0053415645004E4F544500454E5665
:10357E00454C4F5045005357454550005649425211
:10358E0041544F0057415600564F4C004E54452063
:10359E000046494E00504841200064656700415482
:1035AE004B00444543005355530052454C00526D59
:1035BE006F004E4F4E2D4C494E004C494E454152D8
:1035CE00004449522020003C2D2D002D2D3E00534D
:1035DE005045004445500002030404010200080F48
:0635EE000A070A07300B7A
:00000001FF
